:100000000C9463010C94FF0A0C94D40A0C94A90A72
:100010000C947E0A0C94530A0C94280A0C94FD0943
:100020000C94D2090C9494010C9494010C949401B6
:100030000C9494010C9494010C9494010C942A0B4C
:100040000C9494010C9494010C9494010C949401DC
:100050000C9494010C9494010C9494010C948809D0
:100060000C9494010C9452090C9428090C9494015A
:100070000C9494010C9494010C9494010C949401AC
:100080000C9494010C9494010C9494010C9494019C
:100090000C9494010C9494010C9494010C9494018C
:1000A0000C9494010C9494010C9494010C9494017C
:1000B0000C9494010C9494010C9494010C9494016C
:1000C0000C9494010C9494010C9494010C9494015C
:1000D0000C9494010C9494010C94F2080C94C808AC
:1000E0000C9494010C942B040C9448030C94590424
:1000F0000C9455030C94BD010C9434030C94AA0287
:100100000C9415030C941E040C9463040C94A50524
:100110000C943E030C945A030C945D020C941B0344
:100120000C94F9010C94D4050C9476050C942303DB
:100130000C942A030C9451040C9435040C949A04E6
:100140000C9456030C943A030C9418050C94EA0191
:100150000C946D040C940D020C94AE040C94900459
:100160000C941B020C9430030C94A00B0C944203CF
:100170000C9417050C94B8040C9486040C94A404F5
:100180000C943F040C9427030C9426040C941F0336
:100190000C9477040C9447050C9450030C944C0376
:1001A0000C94490400002100240027002A002D009F
:1001B0003000330001010000040107010A010000C2
:1001C0002200250028002B002E00310034000201FF
:1001D0000000050108010B0100002000230026009B
:1001E00029002C002F00320000010000030106014D
:1001F00009010505050507050808080802020202AD
:100200000A0A0808040404040101010101010101B2
:100210000303030303030303040707070C0C0C0C7D
:100220000C0C0C0C02020202060606060606060666
:100230000B0B0B0B0B0B0B0B0102102020080810F3
:100240002040102040800201020108040201010246
:10025000040810204080804020100804020180041F
:10026000020180402010080402010804020101027A
:100270000408102040800102040810204080000083
:100280000A0B02090C0D0E08070304010000000010
:10029000000000000000000000000000000000005E
:1002A000000000000000000000001211100000001B
:1002B000000000000000000000000000000000003E
:1002C00000000000A00B11241FBECFEFD1E2DEBF63
:1002D000CDBF00E00CBF13E0A0E0B2E0E2EFF5E23A
:1002E00000E00BBF02C007900D92AE39B107D9F7FD
:1002F00025E0AEE9B3E001C01D92A63AB207E1F7EE
:1003000011E0C3E6D1E000E006C021970109802F8B
:10031000FE010E94EF12C236D10780E00807A9F75C
:100320000E94F30B0C94F7120C940000FC01A089BE
:10033000B18982E08C93A485B5851C92A685B7858A
:1003400080E18C93108EA489B58986E08C93A28974
:10035000B3898C9180618C93A289B3898C918860D8
:100360008C93A289B3898C9180688C930288F389DD
:10037000E02D80818F7D80830895AF92BF92CF92D0
:10038000DF92EF92FF920F931F93CF93DF936C0155
:100390007B018B01040F151FEB015E01AE18BF0836
:1003A000C017D10759F06991D601ED91FC910190E8
:1003B000F081E02DC6011995892B79F7C501DF91F0
:1003C000CF911F910F91FF90EF90DF90CF90BF9052
:1003D000AF900895FC01538D448D252F30E0842F7C
:1003E00090E0821B930B541710F0CF96089501975D
:1003F0000895FC01918D828D981761F0A28DAE0F4A
:10040000BF2FB11D5D968C91928D9F5F9F73928FD0
:1004100090E008958FEF9FEF0895FC01918D828DFC
:10042000981731F0828DE80FF11D858D90E00895C9
:100430008FEF9FEF0895FC01918D228D892F90E021
:10044000805C9F4F821B91098F73992708958CE6DA
:1004500094E00E941B0221E0892B09F420E0822F06
:10046000089589E095E00E941B0221E0892B09F4A0
:1004700020E0822F0895FC01A48DA80FB92FB11D93
:10048000A35ABF4F2C91848D90E001968F739927CA
:10049000848FA689B7892C93A089B1898C918370A8
:1004A00080648C93938D848D981306C00288F389A1
:1004B000E02D80818F7D80830895EF92FF920F93CE
:1004C0001F93CF93DF93EC0181E0888F9B8D8C8D00
:1004D00098131AC0E889F989808185FF15C09FB7F4
:1004E000F894EE89FF896083E889F98980818370B7
:1004F000806480839FBF81E090E0DF91CF911F9166
:100500000F91FF90EF900895F62E0B8D10E00F5F86
:100510001F4F0F731127E02E8C8D8E110CC00FB65C
:1005200007FCFACFE889F989808185FFF5CFCE01F4
:100530000E943B02F1CFEB8DEC0FFD2FF11DE35A32
:10054000FF4FF0829FB7F8940B8FEA89FB89808177
:100550008062CFCFCF93DF93EC01888D8823B9F0F1
:10056000AA89BB89E889F9898C9185FD03C08081BE
:1005700086FD0DC00FB607FCF7CF8C9185FFF2CF3B
:10058000808185FFEDCFCE010E943B02E9CFDF9154
:10059000CF91089580E090E0892B29F00E943102EC
:1005A00081110E94000080E090E0892B49F080E0FA
:1005B00090E0892B29F00E94000081110E94000028
:1005C00080E090E0892B49F080E090E0892B29F0D1
:1005D0000E94000081110E94000080E090E0892BC1
:1005E00029F00E94270281110C9400000895815087
:1005F000823108F05AC0E82FF0E08827ED5FFC4F09
:100600008F4F0C94EF122303270315031B031F03C3
:1006100055032A03300334033A033E0342034803DD
:100620004C035503500356035A03809180008F7783
:10063000809380000895809180008F7DF9CF809114
:100640008000877FF5CF84B58F7784BD089584B50A
:100650008F7DFBCF8091B0008F778093B00008959D
:100660008091B0008F7DF9CF809190008F7780933B
:1006700090000895809190008F7DF9CF8091900037
:10068000877FF5CF8091A0008F778093A000089599
:100690008091A0008F7DF9CF8091A000877FF5CF5A
:1006A000809120018F77809320010895809120010F
:1006B0008F7DF9CF80912001877FF5CFCF93DF9396
:1006C000282F30E0F901E258FD4F8491F901E85CF0
:1006D000FD4FD491F901EE50FE4FC491CC23A1F00F
:1006E00081110E94F702EC2FF0E0EE0FFF1FE8529D
:1006F000FE4FA591B491EC91ED2381E090E009F4D7
:1007000080E0DF91CF91089580E090E0FACF1F93D1
:10071000CF93DF93282F30E0F901E258FD4F849109
:10072000F901E85CFD4FD491F901EE50FE4FC49100
:10073000CC23A9F0162F81110E94F702EC2FF0E0D4
:10074000EE0FFF1FE254FE4FA591B4918FB7F894BE
:10075000EC91111108C0D095DE23DC938FBFDF919F
:10076000CF911F910895DE2BF8CFCF93DF9390E0C8
:10077000FC01E85CFD4F24918E509E4FFC0184915A
:100780008823D1F090E0880F991FFC01EC55FE4FB3
:10079000A591B491FC01E254FE4FC591D491611131
:1007A0000EC09FB7F8948C91E22FE0958E238C9326
:1007B0002881E223E8839FBFDF91CF9108958FB70F
:1007C000F894EC91E22BEC938FBFF6CF1F93CF936D
:1007D000DF93182FEB0161E00E94B503209739F4F5
:1007E00060E0812FDF91CF911F910C948703CF3F61
:1007F000D10511F461E0F5CFE12FF0E0E258FD4FB3
:10080000E491E150E23108F0B3C0F0E08827E45F02
:10081000FB4F8F4F0C94EF121E0426042B0435045B
:100820003F04B80449045104590463046D04770477
:1008300086049004B8049A04A404AE0484B58068C5
:1008400084BDC7BDDF91CF911F91089584B58062AB
:1008500084BDC8BDF7CF8091800080688093800000
:10086000D0938900C0938800EDCF80918000806292
:1008700080938000D0938B00C0938A00E3CF809157
:100880008000886080938000D0938D00C0938C009E
:10089000D9CF8091B00080688093B000C093B3003E
:1008A000D1CF8091B00080628093B000C093B4003B
:1008B000C9CF80919000806880939000D093990078
:1008C000C0939800BFCF8091900080628093900089
:1008D000D0939B00C0939A00B5CF80919000886020
:1008E00080939000D0939D00C0939C00ABCF8091EB
:1008F000A00080688093A0008091A0008F7B8093EF
:10090000A000D093A900C093A8009CCF8091A00024
:1009100080628093A000D093AB00C093AA0092CFD6
:100920008091A00088608093A000D093AD00C09318
:10093000AC0088CF80912001806880932001D09303
:100940002901C09328017ECF80912001806280938D
:100950002001D0932B01C0932A0174CF80912001F4
:10096000886080932001D0932D01C0932C016ACF21
:10097000C038D1050CF03ECF33CF3FB7F89480910B
:10098000BB039091BC03A091BD03B091BE0326B5FB
:10099000A89B05C02F3F19F00196A11DB11D3FBFB7
:1009A000BA2FA92F982F8827BC01CD01620F711D86
:1009B000811D911D42E0660F771F881F991F4A9580
:1009C000D1F708958F929F92AF92BF92CF92DF920C
:1009D000EF92FF920E94BD044B015C018AE0C82E99
:1009E000D12CE12CF12C0E94BD04681979098A09E7
:1009F0009B09683E734081059105A8F321E0C21A66
:100A0000D108E108F10888EE880E83E0981EA11C49
:100A1000B11CC114D104E104F10429F7FF90EF9057
:100A2000DF90CF90BF90AF909F908F9008950895E2
:100A300082E10E945E030197D1F481E20E945E038D
:100A4000019731F48091A4039091A50301970AC006
:100A500081E20E945E03892BC9F48091A4039091E6
:100A6000A50301969093A5038093A4030FC082E190
:100A70000E945E03892B51F481E20E945E0301977C
:100A800061F381E20E945E03892BE1F2089583E124
:100A90000E945E030197D1F480E20E945E030197F9
:100AA00031F48091A2039091A30301970AC080E2E0
:100AB0000E945E03892BC9F48091A2039091A30345
:100AC00001969093A3038093A2030FC083E10E9439
:100AD0005E03892B51F480E20E945E03019761F36B
:100AE00080E20E945E03892BE1F2089583E00E9478
:100AF0005E030197D1F48FE10E945E03019731F408
:100B00008091A0039091A10301960AC08FE10E94F9
:100B10005E03892BC9F48091A0039091A1030197F2
:100B20009093A1038093A0030FC083E00E945E0313
:100B3000892B51F48FE10E945E03019761F38FE1ED
:100B40000E945E03892BE1F2089582E00E945E0319
:100B50000197D1F48EE10E945E03019731F48091F8
:100B60009E0390919F0301960AC08EE10E945E034E
:100B7000892BC9F480919E0390919F0301979093D4
:100B80009F0380939E030FC082E00E945E03892B27
:100B900051F48EE10E945E03019761F38EE10E94A1
:100BA0005E03892BE1F208952F923F924F925F925C
:100BB0006F927F928F929F92AF92BF92CF92DF926D
:100BC000EF92FF920F931F93CF93DF93CDB7DEB7D2
:100BD0002C970FB6F894DEBF0FBECDBFCE010196A5
:100BE0007C0188E0F70111928A95E9F70EE913E09C
:100BF00036EAC32E33E0D32EF801619171918F0153
:100C0000072E000C880B990B0E94AB112AEB38EED3
:100C100042E851E40E9460122AE037ED43EA5CE3C7
:100C20000E94011120E030E044EB53E40E940111E6
:100C300020E030E040E752E40E94601220E030E023
:100C400044EB52E40E940111F60161937193819388
:100C500091936F01F3E0063A1F0771F68CE594E07B
:100C60009C878B870FEB13E0FA86E986312C212CC9
:100C7000EB85FC858191FC87EB87882309F4FEC016
:100C8000F101E05AFB4F6281062E000C770B880BB6
:100C9000990B0E94AB11F101EE0FFF1FEE0FFF1F2A
:100CA000E256FC4F20853185428553850E948F1086
:100CB0004B015C01F80184869586A686B78624815F
:100CC0003581468157810E946012F801208931895F
:100CD000428953890E9490102B013C01F801408AFF
:100CE000518A628A738AC48CD58CE68CF78CA701F2
:100CF00096010E945B12181634F4F801C08AD18A5A
:100D0000E28AF38A0CC0F7FAF094F7F8F094A7019E
:100D10009601C301B2010E94FC1087FDEECFF801DD
:100D2000208D318D428D538DC501B4010E948F10ED
:100D30006B017C01F801C48AD58AE68AF78A208192
:100D4000318142815381C501B4010E946012F801D2
:100D500020893189428953890E9490102B013C01DE
:100D6000F8012085318542855385C701B6010E946F
:100D700060129B01AC01C301B2010E949010F80106
:100D800060A371A382A393A3808E918EA28EB38E53
:100D90000E947311E985FA8571836083FFEF2F1A32
:100DA0003F0A0C5D1F4F89859A8502969A8789872D
:100DB00094E02916310409F05BCF80915C0488230C
:100DC00051F009811A810115110509F05CC060E03C
:100DD00084E00E94870380915D04882351F00B8199
:100DE0001C810115110509F08BC060E085E00E94AF
:100DF000870380915E04882351F00D811E810115C7
:100E0000110509F0BAC060E086E00E948703809176
:100E10005F04882351F00F8118850115110509F031
:100E2000E9C060E087E00E94870310929F03109260
:100E30009E031092A1031092A0031092A30310929C
:100E4000A2031092A5031092A4032C960FB6F89457
:100E5000DEBF0FBECDBFDF91CF911F910F91FF90ED
:100E6000EF90DF90CF90BF90AF909F908F907F904A
:100E70006F905F904F903F902F900895E985FA858D
:100E8000118210828BCF10161106E4F461E086E126
:100E90000E94870360E087E10E9487030832110502
:100EA00044F41A82198269817A8184E00E94E603FF
:100EB00092CF0F3F1105B9F3B4F38FEF90E09A830F
:100EC0008983F1CF60E086E10E94870361E087E1DA
:100ED0000E948703093DEFEF1E0754F01A82198222
:100EE00069817A8177FFE1CF719561957109DDCFD5
:100EF00001301F4FACF781E09FEF9A838983F0CFD9
:100F000010161106E4F461E088E10E94870360E0B6
:100F100089E10E9487030832110544F41C821B8278
:100F20006B817C8185E00E94E60363CF0F3F110552
:100F3000B9F3B4F38FEF90E09C838B83F1CF60E043
:100F400088E10E94870361E089E10E948703093DEF
:100F50008FEF180754F01C821B826B817C8177FF16
:100F6000E1CF719561957109DDCF01301F4FACF76D
:100F700081E09FEF9C838B83F0CF10161106E4F481
:100F800061E082E30E94870360E083E30E948703BD
:100F90000832110544F41E821D826D817E8186E037
:100FA0000E94E60334CF0F3F1105B9F3B4F38FEF7E
:100FB00090E09E838D83F1CF60E082E30E948703FF
:100FC00061E083E30E948703093DEFEF1E0754F0C1
:100FD0001E821D826D817E8177FFE1CF71956195C3
:100FE0007109DDCF01301F4FACF781E09FEF9E8389
:100FF0008D83F0CF10161106E4F461E084E30E94C3
:10100000870360E085E30E9487030832110544F4FA
:1010100018861F826F81788587E00E94E60305CFDE
:101020000F3F1105B9F3B4F38FEF90E098878F83EA
:10103000F1CF60E084E30E94870361E085E30E94D2
:101040008703093D8FEF180754F018861F826F81C0
:10105000788577FFE1CF719561957109DDCF01301A
:101060001F4FACF781E09FEF98878F83F0CFFB0194
:1010700001900020E9F73197AF01461B570B0C9404
:10108000BD018F929F92AF92BF920F931F93CF9308
:10109000DF93CDB7DEB7A1970FB6F894DEBF0FBED2
:1010A000CDBF19A2423008F44AE08E010F5D1F4FF8
:1010B000842E912CB12CA12CA50194010E94CD125B
:1010C000E62FB901CA01EA3004F5E05DD801EE93DC
:1010D0008D01232B242B252B79F790E080E01097AE
:1010E00029F0BD0189E095E00E943708A1960FB66E
:1010F000F894DEBF0FBECDBFDF91CF911F910F914E
:10110000BF90AF909F908F900895E95CDFCFCF9212
:10111000DF92EF92FF92CF93DF936B017C016DE240
:1011200089E095E00E945D02EC0166277727CB01FC
:101130006C197D098E099F094AE00E9441088C0FB5
:101140009D1FDF91CF91FF90EF90DF90CF9008959A
:10115000CF93DF93BC0189E095E00E943708EC0152
:1011600062E272E089E095E00E9437088C0F9D1FD3
:10117000DF91CF9108950C9437089C01BC01990F21
:10118000880B990B37FD0C9487084AE00C944108B2
:101190001F920F920FB60F9211240BB60F922F933E
:1011A0003F934F935F936F937F938F939F93AF93EF
:1011B000BF93EF93FF938CE694E00E943B02FF9174
:1011C000EF91BF91AF919F918F917F916F915F91BF
:1011D0004F913F912F910F900BBE0F900FBE0F902C
:1011E0001F9018951F920F920FB60F9211240BB6F5
:1011F0000F922F938F939F93EF93FF93E0917C0433
:10120000F0917D048081E0918204F091830482FD5D
:101210001DC09081809185048F5F8F73209186041B
:10122000821741F0E0918504F0E0E459FB4F958F7F
:1012300080938504FF91EF919F918F912F910F9053
:101240000BBE0F900FBE0F901F9018958081F2CFAC
:101250001F920F920FB60F9211240BB60F922F937D
:101260003F934F935F936F937F938F939F93AF932E
:10127000BF93EF93FF9389E095E00E943B02FF91BB
:10128000EF91BF91AF919F918F917F916F915F91FE
:101290004F913F912F910F900BBE0F900FBE0F906B
:1012A0001F9018951F920F920FB60F9211240BB634
:1012B0000F922F938F939F93EF93FF93E0911905D4
:1012C000F0911A058081E0911F05F091200582FDC3
:1012D0001DC09081809122058F5F8F73209123051F
:1012E000821741F0E0912205F0E0E75FFA4F958F19
:1012F00080932205FF91EF919F918F912F910F90F5
:101300000BBE0F900FBE0F901F9018958081F2CFEB
:101310001F920F920FB60F9211242F933F938F932A
:101320009F93AF93BF938091B7039091B803A0911F
:10133000B903B091BA033091B60323E0230F2D37E0
:1013400058F50196A11DB11D2093B6038093B703F4
:101350009093B803A093B903B093BA038091BB03F1
:101360009091BC03A091BD03B091BE030196A11D55
:10137000B11D8093BB039093BC03A093BD03B093B6
:10138000BE03BF91AF919F918F913F912F910F908D
:101390000FBE0F901F90189526E8230F0296A11DEF
:1013A000B11DD2CF1F920F920FB60F9211240BB620
:1013B0000F922F933F934F935F936F937F938F93EE
:1013C0009F93AF93BF93EF93FF93E0910E02F09141
:1013D0000F021995FF91EF91BF91AF919F918F915E
:1013E0007F916F915F914F913F912F910F900BBE25
:1013F0000F900FBE0F901F9018951F920F920FB66F
:101400000F9211240BB60F922F933F934F935F933C
:101410006F937F938F939F93AF93BF93EF93FF93BC
:10142000E0910C02F0910D021995FF91EF91BF919F
:10143000AF919F918F917F916F915F914F913F916C
:101440002F910F900BBE0F900FBE0F901F9018950D
:101450001F920F920FB60F9211240BB60F922F937B
:101460003F934F935F936F937F938F939F93AF932C
:10147000BF93EF93FF93E0910202F091030219955D
:10148000FF91EF91BF91AF919F918F917F916F915C
:101490005F914F913F912F910F900BBE0F900FBE18
:1014A0000F901F9018951F920F920FB60F92112454
:1014B0000BB60F922F933F934F935F936F937F934E
:1014C0008F939F93AF93BF93EF93FF93E0910002AD
:1014D000F09101021995FF91EF91BF91AF919F910A
:1014E0008F917F916F915F914F913F912F910F90CD
:1014F0000BBE0F900FBE0F901F9018951F920F926A
:101500000FB60F9211240BB60F922F933F934F9368
:101510005F936F937F938F939F93AF93BF93EF935B
:10152000FF93E0910A02F0910B021995FF91EF9160
:10153000BF91AF919F918F917F916F915F914F91EB
:101540003F912F910F900BBE0F900FBE0F901F90E9
:1015500018951F920F920FB60F9211240BB60F928F
:101560002F933F934F935F936F937F938F939F93AB
:10157000AF93BF93EF93FF93E0910802F0910902BC
:101580001995FF91EF91BF91AF919F918F917F91AD
:101590006F915F914F913F912F910F900BBE0F90E4
:1015A0000FBE0F901F9018951F920F920FB60F92BB
:1015B00011240BB60F922F933F934F935F936F932A
:1015C0007F938F939F93AF93BF93EF93FF93E0919C
:1015D0000602F09107021995FF91EF91BF91AF912B
:1015E0009F918F917F916F915F914F913F912F913B
:1015F0000F900BBE0F900FBE0F901F9018951F926B
:101600000F920FB60F9211240BB60F922F933F93A8
:101610004F935F936F937F938F939F93AF93BF93FA
:10162000EF93FF93E0910402F09105021995FF9169
:10163000EF91BF91AF919F918F917F916F915F914A
:101640004F913F912F910F900BBE0F900FBE0F90B7
:101650001F9018951F920F920FB60F9211240BB680
:101660000F922F933F934F935F936F937F938F933B
:101670009F93AF93BF93EF93FF9380915504909105
:1016800056048093B2008091580490915904A0911F
:101690005A04B0915B040196A11DB11D80935804BA
:1016A00090935904A0935A04B0935B04809158041A
:1016B00090915904A0915A04B0915B044091510457
:1016C000509152046091530470915404841795070B
:1016D000A607B70710F18091570481111EC081E061
:1016E000809357048091580490915904A0915A0412
:1016F000B0915B04841B950BA60BB70B8093580429
:1017000090935904A0935A04B0935B04E0914F0462
:10171000F0915004199510925704FF91EF91BF91E9
:10172000AF919F918F917F916F915F914F913F9179
:101730002F910F900BBE0F900FBE0F901F9018951A
:10174000ECE6F4E01382128248EE53E060E070E0D1
:10175000448355836683778384E192E09183808319
:1017600025E331E03587248724E331E03787268776
:1017700020E331E0318B208B21E331E0338B228B6E
:1017800022E331E0358B248B26E331E0378B268B47
:10179000118E128E138E148EE9E0F5E01382128200
:1017A00044835583668377839183808385EC90E0BF
:1017B0009587848784EC90E09787868780EC90E01B
:1017C000918B808B81EC90E0938B828B82EC90E00C
:1017D000958B848B86EC90E0978B868B118E128E86
:1017E000138E148E0895789484B5826084BD84B578
:1017F000816084BD85B5826085BD85B5816085BD0C
:1018000080916E00816080936E00109281008091C3
:10181000810082608093810080918100816080934B
:101820008100809180008160809380008091B10070
:1018300084608093B1008091B00081608093B0009B
:1018400080919100826080939100809191008160ED
:1018500080939100809190008160809390008091AE
:10186000A10082608093A1008091A100816080939B
:10187000A1008091A00081608093A000809121014F
:1018800082608093210180912101816080932101F8
:101890008091200181608093200180917A00846092
:1018A00080937A0080917A00826080937A008091A0
:1018B0007A00816080937A0080917A0080688093BA
:1018C0007A001092C10089E095E00E9496018CE6B2
:1018D00094E00E94960161E084E00E94B50361E01B
:1018E00086E10E94B50361E087E10E94B50361E0F3
:1018F00085E00E94B50361E088E10E94B50361E0E4
:1019000089E10E94B50361E086E00E94B50361E0D1
:1019100082E30E94B50361E083E30E94B50361E0C6
:1019200087E00E94B50361E084E30E94B50361E0B3
:1019300085E30E94B50360E084E00E94870361E0D4
:1019400086E10E94870361E087E10E94870360E0EF
:1019500085E00E94870361E088E10E94870361E0DF
:1019600089E10E94870360E086E00E94870361E0CE
:1019700082E30E94870361E083E30E94870360E0C3
:1019800087E00E94870361E084E30E94870361E0AF
:1019900085E30E94870360E082E00E94B50360E077
:1019A00083E00E94B50360E083E10E94B50360E03C
:1019B00082E10E94B50360E08EE10E94B50360E021
:1019C0008FE10E94B50360E080E20E94B50360E011
:1019D00081E20E94B50385EA95E09093010280932D
:1019E000000280916A008C7F816080936A00EC9A8B
:1019F00086E795E0909303028093020280916A004B
:101A0000837F846080936A00ED9A87E495E09093E9
:101A1000090280930802809169008F7C8061809325
:101A20006900EA9A88E195E090930B0280930A029C
:101A3000809169008F73806480936900EB9AC12C58
:101A4000D12C98E8E92E90E4F92EC092BF03D092F1
:101A5000C003E092C103F092C20300E010E020E076
:101A60003FE30093C3031093C4032093C503309353
:101A7000C6034AE959E969E97EE34093C7035093F5
:101A8000C8036093C9037093CA0380E090E0A6E1A5
:101A9000B3E48093DB039093DC03A093DD03B09366
:101AA000DE03C092E303D092E403E092E503F092F8
:101AB000E6030093E7031093E8032093E9033093D0
:101AC000EA034093EB035093EC036093ED037093B0
:101AD000EE038093FF0390930004A0930104B0935E
:101AE0000204C0920704D0920804E0920904F09224
:101AF0000A0400930B0410930C0420930D043093FC
:101B00000E0440930F0450931004609311047093DB
:101B100012048093230490932404A0932504B0938B
:101B20002604C0922B04D0922C04E0922D04F09253
:101B30002E0400932F04109330042093310430932B
:101B4000320440933304509334046093350470930B
:101B500036048093470490934804A0934904B093BB
:101B60004A0484E190E0A0E0B0E0809351049093B7
:101B70005204A0935304B093540484ED95E09093E1
:101B8000500480934F04809170008E7F809370008A
:101B90008091B0008C7F8093B0008091B100877FEE
:101BA0008093B1008091B6008F7D8093B6008091C4
:101BB00070008D7F809370008091B100846080936D
:101BC000B1008091B1008C7F8093B10080E091E002
:101BD000909356048093550410925804109259041F
:101BE00010925A0410925B0410925704809155048D
:101BF000909156048093B200809170008160809330
:101C0000700085E292E00E94A808C1E0D0E328EBD2
:101C1000D22E8CE694E00E941B0220916704892B4F
:101C200059F1211129C08CE694E00E94F901833218
:101C300039F4C0936604109267040E94E204E9CF6D
:101C400090916604992389F09091670491110DC0D9
:101C500090916B04933048F4E92FF0E0EA59FB4F80
:101C600082839F5F90936B04E8CF8A3031F71092A4
:101C70006604C0936704E1CF222309F4C1C062E483
:101C800072E08CE694E00E94BB0863E272E089E0B7
:101C900095E00E94BB0887E492E00E94A80868E6ED
:101CA00072E089E095E00E94BB086091680489E0D9
:101CB00095E00E945D026091690489E095E00E94D0
:101CC0005D0260916A0489E095E00E945D0267E729
:101CD00072E089E095E00E94BB0887E492E00E94F0
:101CE000A80880916804883479F0853469F08735D4
:101CF00059F092EB980F963038F08154833020F0F1
:101D00008AE792E00E94A80880916804853451F027
:101D1000873541F092EB980F963020F0982F9D7FF9
:101D2000913451F49091690490539A3088F49091D1
:101D30006A0490539A3060F4823411F0883461F46C
:101D400080916904883521F480916A04883521F0F6
:101D500084E992E00E94A80880916804823409F422
:101D600054C0883469F0853441F1873531F192EB04
:101D7000980F963028F091E0282F2D7F213409F418
:101D800090E022EB280F2630C8F0282F2D7F213439
:101D9000A9F08834D9F191111BC08093600490910F
:101DA0006904905320916A04FAE09F9F200D11244A
:101DB00090ED920F90936104C8C090E02091690467
:101DC00020532A3028F420916A0420532A3008F343
:101DD00087E492E00E94A80880E893E00E94A808A7
:101DE00087E492E00E94A80863E272E089E095E04F
:101DF0000E94BB08109266041092670410926B0454
:101E00000E94E2040E94CA0204CF90E0209169047B
:101E10002835F1F620916A042835D1F69111D8CFF2
:101E200080936004823419F0883409F08AC01092DB
:101E30006104109262041092630410926404109280
:101E400065046EEA72E089E095E00E94BB0880912B
:101E50006004823409F0E2C085EB92E00E94A80899
:101E600080916004823499F0883489F067E573E0EA
:101E700089E095E00E94BB0880916104082E000C67
:101E8000990B0E94BD088DE593E00E94A80882E6A8
:101E9000E82E84E0F82E10E000E06FE673E089E0C1
:101EA00095E00E94BB080F5F1F4FC8010E94BD084C
:101EB0006EE773E089E095E00E94BB08F70161914D
:101EC0007F01062E000C770B880B990B97FFD9C06A
:101ED0000E94870862E272E089E095E00E9437087C
:101EE00004301105D1F680916004823409F0CDC030
:101EF00060E086E10E94870360E087E10E9487033B
:101F000060E088E10E94870360E089E10E94870326
:101F100060E082E30E94870360E083E30E9487031E
:101F200060E084E30E94870360E085E30E9487030A
:101F300010925C0410925D0410925E0410925F0493
:101F400047CFD092610498EB28EE853459F48D2F59
:101F5000821B809362049093630480936404909343
:101F600065046FCF833549F48D2F821B8093620403
:101F700080936304809364040AC0873559F4909376
:101F800062048D2F821B809363049093640480937A
:101F9000650457CF8E3439F49093620490936304B0
:101FA00090936404DCCF8F3439F4109262049093E0
:101FB000630410926404D3CF803549F48D2F821BC3
:101FC00080936204109263048093640438CF813557
:101FD00049F4109262048D2F821B80936304109247
:101FE0006404D5CF823539F490936204109263046F
:101FF0009093640424CF833439F48D2F821B809313
:10200000620480936304CCCF813409F01ACF90939B
:102010006204909363048D2F821BACCF883419F433
:102020008DEB92E01BCF64EC72E0853429F16FEC0C
:1020300072E0833509F16BED72E08735E9F066EE09
:1020400072E08E34C9F062EF72E08F34A9F062E082
:1020500073E0803589F062E173E0813569F062E216
:1020600073E0823549F062E373E0833429F0813410
:1020700009F0F6CE62E473E089E095E00E94BB08C7
:10208000EFCE4AE00E94410825CF8834F1F461E0A8
:1020900086E10E94870361E087E10E94870361E097
:1020A00088E10E94870361E089E10E94870361E083
:1020B00082E30E94870361E083E30E94870361E07B
:1020C00084E30E94870361E030CF853421F0982FAC
:1020D0009B7F933549F4C0935C04C0935D04C09327
:1020E0005E04C0935F0474CE8E34A9F3982F9D7F55
:1020F000913489F38F3411F0813539F410925C04F6
:10210000C0935D0410925E04ECCF903509F060CE70
:10211000C0935C0410925D04C0935E040FCF5058CE
:10212000BB27AA270E94A7100C9421120E94131209
:1021300038F00E941A1220F039F49F3F19F426F467
:102140000C9410120EF4E095E7FB0C940A12E92FA0
:102150000E94321258F3BA17620773078407950773
:1021600020F079F4A6F50C9454120EF4E0950B2EA1
:10217000BA2FA02D0B01B90190010C01CA01A001D9
:102180001124FF27591B99F0593F50F4503E68F134
:102190001A16F040A22F232F342F4427585FF3CF75
:1021A000469537952795A795F0405395C9F77EF446
:1021B0001F16BA0B620B730B840BBAF09150A1F08F
:1021C000FF0FBB1F661F771F881FC2F70EC0BA0F15
:1021D000621F731F841F48F4879577956795B7959D
:1021E000F7959E3F08F0B0CF9395880F08F0992798
:1021F000EE0F9795879508950E94E61108F481E007
:1022000008950E9415110C9421120E941A1258F080
:102210000E94131240F029F45F3F29F00C940A1237
:1022200051110C9455120C9410120E94321268F342
:102230009923B1F3552391F3951B550BBB27AA277F
:1022400062177307840738F09F5F5F4F220F331FB9
:10225000441FAA1FA9F335D00E2E3AF0E0E832D081
:1022600091505040E695001CCAF72BD0FE2F29D084
:10227000660F771F881FBB1F261737074807AB0756
:10228000B0E809F0BB0B802DBF01FF2793585F4FCB
:102290003AF09E3F510578F00C940A120C945512B6
:1022A0005F3FE4F3983ED4F3869577956795B795AD
:1022B000F7959F5FC9F7880F911D9695879597F9B8
:1022C0000895E1E0660F771F881FBB1F6217730731
:1022D0008407BA0720F0621B730B840BBA0BEE1F46
:1022E00088F7E09508950E947A116894B1110C94D2
:1022F000551208950E943A1288F09F5798F0B92F0E
:102300009927B751B0F0E1F0660F771F881F991F2A
:102310001AF0BA95C9F714C0B13091F00E94541266
:10232000B1E008950C945412672F782F8827B85F76
:1023300039F0B93FCCF3869577956795B395D9F782
:102340003EF490958095709561957F4F8F4F9F4F8C
:102350000895E89409C097FB3EF490958095709598
:1023600061957F4F8F4F9F4F9923A9F0F92F96E9E1
:10237000BB279395F695879577956795B795F11156
:10238000F8CFFAF4BB0F11F460FF1BC06F5F7F4FF3
:102390008F4F9F4F16C0882311F096E911C0772305
:1023A00021F09EE8872F762F05C0662371F096E80E
:1023B000862F70E060E02AF09A95660F771F881FDD
:1023C000DAF7880F9695879597F90895990F000881
:1023D000550FAA0BE0E8FEEF16161706E807F907F7
:1023E000C0F012161306E407F50798F0621B730B92
:1023F000840B950B39F40A2661F0232B242B252B13
:1024000021F408950A2609F4A140A6958FEF811DB5
:10241000811D089597F99F6780E870E060E0089556
:102420009FEF80EC089500240A94161617061806EC
:102430000906089500240A941216130614060506C8
:102440000895092E0394000C11F4882352F0BB0F59
:1024500040F4BF2B11F460FF04C06F5F7F4F8F4FBC
:102460009F4F089557FD9058440F551F59F05F3FF7
:1024700071F04795880F97FB991F61F09F3F79F0A6
:1024800087950895121613061406551FF2CF469528
:10249000F1DF08C0161617061806991FF1CF8695AA
:1024A0007105610508940895E894BB27662777278E
:1024B000CB0197F908950E94E61108F48FEF089573
:1024C0000E9473120C9421120E94131238F00E9481
:1024D0001A1220F0952311F00C940A120C94101289
:1024E00011240C9455120E94321270F3959FC1F37F
:1024F000950F50E0551F629FF001729FBB27F00DB2
:10250000B11D639FAA27F00DB11DAA1F649F662706
:10251000B00DA11D661F829F2227B00DA11D621F55
:10252000739FB00DA11D621F839FA00D611D221F0F
:10253000749F3327A00D611D231F849F600D211DF3
:10254000822F762F6A2F11249F5750409AF0F1F076
:1025500088234AF0EE0FFF1FBB1F661F771F881FDF
:1025600091505040A9F79E3F510580F00C940A12FB
:102570000C9455125F3FE4F3983ED4F3869577951B
:102580006795B795F795E7959F5FC1F7FE2B880F85
:10259000911D9695879597F90895A1E21A2EAA1B89
:1025A000BB1BFD010DC0AA1FBB1FEE1FFF1FA21703
:1025B000B307E407F50720F0A21BB30BE40BF50B00
:1025C000661F771F881F991F1A9469F76095709589
:1025D000809590959B01AC01BD01CF010895EE0F50
:1025E000FF1F881F8BBF0790F691E02D1994F89478
:0225F000FFCF1B
:1025F20017051705170517051705170517051705F9
:10260200000000005D02BD01EA01AA021B02F901FD
:102612000D020D0A000A526F626F74206861732006
:102622006265656E20696E697469616C697A656458
:102632002100236F6B0A002A2A2A2A2A2A2A2A2AF6
:102642002A2A2A2A2A2A2A2A2A2A2A2A2A2A2A2AE8
:102652002A2A2A2A2A2A2A004672616D6520427590
:10266200666665723A20002E0A004572726F723AEF
:102672002077726F6E67207374617475732062794C
:10268200746521004572726F723A2077726F6E67BD
:102692002073706565642062797465732100526FDE
:1026A200626F7420006272616B65732E0068616EE6
:1026B20067732E00676F657320656173742000670E
:1026C2006F657320736F7574682000676F65732080
:1026D200776573742000676F6573206E6F7274681C
:1026E2002000676F6573206E6F7274686561737422
:1026F2002000676F657320736F757468656173740A
:102702002000676F657320736F75746877657374E3
:102712002000676F6573206E6F72746877657374DB
:102722002000676F657320636C6F636B77697365F5
:102732002000676F657320616E74692D636C6F632F
:102742006B77697365200077697468200020727066
:102752006D20776865656C2073706565642E004531
:102762007870656374576865656C537064003D00EA
:10277200546865206672616D6520686173206265C8
:0E278200656E2065786563757465642E2000B1
:00000001FF
